:020000021000EC
:10F0000045C0000068C0000066C0000064C0000089
:10F0100062C0000060C000005EC000005CC0000074
:10F020005AC0000058C0000056C0000054C0000084
:10F0300052C0000050C000004EC000004CC0000094
:10F040004AC0000048C0000046C0000044C00000A4
:10F0500042C0000040C000003EC000003CC00000B4
:10F060003AC0000038C0000036C0000034C00000C4
:10F0700032C0000030C000002EC000002CC00000D4
:10F080002AC0000028C0000026C0000011241FBEB6
:10F09000CFEFD0E4DEBFCDBF88E10FB6F894809308
:10F0A0006000109260000FBE11E0A0E0B1E0ECE55E
:10F0B000FFEF01E00BBF02C007900D92A630B10731
:10F0C000D9F715E0A6E0B1E001C01D92AD36B10759
:10F0D000E1F76FD441C794CF0F931F93FC019A01BE
:10F0E000AB01225031094109510986819781A085E0
:10F0F000B1850297A109B109281739074A075B07AB
:10F1000060F4A789B0E0A0D60289138924893589E3
:10F11000600F711F821F931F03C060E070E0CB017E
:10F120001F910F910895CF92DF92EF92FF92CF93AC
:10F13000DF9320910B0130910C01C0900601D0901B
:10F140000701E0900801F0900901C416D506E60613
:10F15000F70619F482179307C9F0411551056105A7
:10F160007105A1F06A017B01EC018DE091E038D6D8
:10F1700081110EC0C0920601D0920701E0920801F1
:10F18000F0920901D0930C01C0930B0181E001C002
:10F1900080E0DF91CF91FF90EF90DF90CF900895C6
:10F1A0004F925F926F927F92BF92CF92DF92EF92D7
:10F1B000FF920F931F93CF93DF93EC016A017B01C2
:10F1C000423051056105710508F490C08E819F8120
:10F1D000A885B985481759076A077B0708F086C0D4
:10F1E0004A845B846C847D848E89823009F446C0B5
:10F1F000833009F45AC0813009F078C08A01000FC9
:10F20000111F0C0D1D1D16950795C801892F9927F3
:10F210008695B301A201480F591F611D711DCE01D2
:10F2200082DF882309F462C0F801F170EA5FFE4FC3
:10F23000B7800F5F1F4FC801892F99278695B301AB
:10F24000A201480F591F611D711DCE016CDF88237B
:10F2500009F44CC01170F801EA5FFE4F87816B2DF5
:10F2600070E0782BC0FE06C044E0769567954A951D
:10F27000E1F701C07F7080E090E03CC0452F562F41
:10F28000672F7727440D551D661D771DCE014BDF77
:10F29000882361F1CC0CDD1CC6018E7F9170FC01CE
:10F2A000E35FFE4F60817181E6CF97E076956795C9
:10F2B000579547959A95D1F7440D551D661D771DB5
:10F2C000CE0131DF882391F0CC0CDD1CCC0CDD1C91
:10F2D000C6018C7F9170FC01E35FFE4F80819181BC
:10F2E000A281B381BC01CD019F7004C061E070E0D8
:10F2F00080E090E0DF91CF911F910F91FF90EF9010
:10F30000DF90CF90BF907F906F905F904F90089567
:10F31000CF92DF92EF92FF926A017B0104DF8111AD
:10F3200002C082E036C0CD28CE28CF2881F440E04C
:10F3300050E0BA018DE091E053D58111F2CF1092E7
:10F3400006011092070110920801109209018091A4
:10F350000B0390910C0385359A4A19F743E050E06E
:10F3600060E071E083E491E0E1D5892B79F045E03C
:10F3700050E060E071E08FE591E0D8D5892B41F451
:10F3800080913501881F8827881F03C080E001C055
:10F3900081E0FF90EF90DF90CF9008954F925F92C1
:10F3A0006F927F928F929F92AF92BF92CF92DF9295
:10F3B000EF92FF92CF93DF93EB0189E1FB01119272
:10F3C0008A95E9F76FD480FDC5C040E050E0BA01EE
:10F3D000CE019EDF813099F48091CF02811102C06D
:10F3E0008BE0B9C08090D3029090D402A090D50257
:10F3F000B090D602B501A401CE018ADF03C0812CF2
:10F40000912C54018111ECCF809118019091190138
:10F410008115924029F7209123013091240140E089
:10F4200050E0211531054105510541F4209131018C
:10F430003091320140913301509134012A833B8352
:10F440004C835D83A0911D01A88FB0E0FDD42B01FA
:10F450003C0180911B0190911C01880E991EA11CFA
:10F46000B11C8A869B86AC86BD8620911A012F8BA3
:10F47000C0901E01D0901F01D982C88280912001C6
:10F4800090912101A0E0B0E00097A105B10541F401
:10F4900080912D0190912E01A0912F01B09130010A
:10F4A00034E0D694C7943A95E1F7E12CF12C4091E1
:10F4B0001B0150911C01841B950BA109B1098419F2
:10F4C0009509A609B709BC01CD016C197D098E0902
:10F4D0009F0930E040E050E0C1D4DA01C901029652
:10F4E000A11DB11D8E839F83A887B987873F2FE019
:10F4F0009207A105B10538F0873F9F4FA105B105DF
:10F5000020F083E003C081E001C082E08E8B833075
:10F5100049F48091390190913A01A0913B01B09159
:10F520003C0106C0D301C201880D991DAA1DBB1D57
:10F530008E879F87A88BB98BC80CD91CEA1CFB1C33
:10F540004C0C5D1C6E1C7F1C4A8A5B8A6C8A7D8A0F
:10F5500080E001C081E0DF91CF91FF90EF90DF90DC
:10F56000CF90BF90AF909F908F907F906F905F9063
:10F570004F9008956115710511F0FB01168A40E066
:10F580000DCF0895CF92DF92EF92FF92FA0121E022
:10F590002083DB011496CD90DD90ED90FC901797C1
:10F5A000C486D586E686F7864D915D916D917C91F6
:10F5B000408751876287738714821582168217826B
:10F5C00021839383828380E0FF90EF90DF90CF9040
:10F5D0000895A0E0B0E0EEEEFAEF62C4EC017B012A
:10F5E0008A012A803B80888187FDC3C080FFC3C019
:10F5F00088859985AA85BB854C815D816E817F81D7
:10F60000841B950BA60BB70BA80160E070E0841774
:10F610009507A607B70708F03DC08C013BC04C8199
:10F620005D816E817F81DB01CA019170AA27BB27B2
:10F63000892B8A2B8B2B09F060C0898181508983AB
:10F64000882369F14C895D896E897F894F5F5F4F9F
:10F650006F4F7F4F4C8B5D8B6E8B7F8B0115F2E074
:10F660001F0709F04AC0C701BBD381117FC0C12C5D
:10F6700082E0D82EEC0CFD1C8C819D81AE81BF8177
:10F680008C0D9D1DA11DB11D8C839D83AE83BF83F9
:10F690000C191D090115110509F0C1CF65C0452BD5
:10F6A000462B472B29F44C855D856E857F8508C0E8
:10F6B000488959896A897B89C10172DDAB01BC0126
:10F6C000423051056105710508F450C0F101868191
:10F6D0009781A085B185481759076A077B0708F00D
:10F6E00045C0488B598B6A8B7B8BC101F5DCAB0124
:10F6F000BC01F10187898983ADCF4C805D806E802C
:10F700007F808C889D88AE88BF88CA80DB8080918E
:10F710000B0190910C0140910601509107016091FD
:10F72000080170910901481559056A057B0519F40E
:10F73000C816D90611F181149104A104B104E9F0AD
:10F74000B501A4018DE091E04BD381110FC08092EF
:10F75000060190920701A0920801B0920901D0928F
:10F760000C01C0920B0109C080E021C08881806833
:10F77000888388E01CC086E01AC081E0582280E0BF
:10F7800092E08419950968018017910708F46C01CB
:10F790008C819D81AE81BF819170AA27BB2707967E
:10F7A000BC016A5F7E4FA601C701CDD363CFCDB741
:10F7B000DEB7E2E191C3CF93DF93EB019B838A83B2
:10F7C000FC0146855785608971892689233071F44B
:10F7D0004C835D836E837F83488759876A877B87E5
:10F7E0007BDC6C877D878E879F870CC01C821D8287
:10F7F0001E821F82188619861A861B864C875D8793
:10F800006E877F871982188280E0DF91CF910895FB
:10F81000A0E0B0E0EDE0FCEF49C3EC018B01EA8031
:10F82000FB80DB0118961C924C855D856E857F857B
:10F830004115510561057105A9F0C70174DC8823E4
:10F8400009F49AC0E881F981EF70FF2735E0EE0FE7
:10F85000FF1F3A95E1F7DF01AA5FBE4F17968C9123
:10F86000811102C080E08FC0853E39F1E35FFE4F19
:10F87000838583FD22C081E0D80118968C93189768
:10F88000448D558D668D778D4D935D936D937C93EF
:10F89000139784899589A0E0B0E0DC019927882737
:10F8A000428D538D60E070E0842B952BA62BB72BF7
:10F8B000F80184839583A683B783C880D980FFEF3E
:10F8C000CF1ADF0AC6018F709927892B09F04BC028
:10F8D0008C859D85AE85BF850196A11DB11D8C8748
:10F8E0009D87AE87BF87488559856A857B85411589
:10F8F00051056105710541F4EA81FB8180819181A7
:10F90000C816D90680F13AC08A819B81DC015796DE
:10F910002C9130E021503109F601A4E0F695E795ED
:10F92000AA95E1F72E233F23232BE9F439DCAB0121
:10F93000BC01423051056105710500F18A819B814E
:10F94000FC0186809780A084B184481559056A051A
:10F950007B05A0F4488759876A877B87BDDB6C8766
:10F960007D878E879F87D982C882D80118968C910F
:10F97000882309F459CF76CF88E005C01C861D8600
:10F980001E861F86F2CFCDB7DEB7ECE0ABC286276E
:10F99000082E8295807F8025092E982F82958F7062
:10F9A0000826869598278927880F880F880F802535
:10F9B000089585B7806885BF85BF509A519A589A37
:10F9C0005998599A63E575E080E0D4DD80932D0560
:10F9D00081119EC063E475E083E595E0ECDE6EE2A4
:10F9E00075E083E495E014DF811192C080913605C3
:10F9F000882309F48DC080912E0590912F05A09148
:10FA00003005B09131058115904FA140B10539F70E
:10FA100045E155E06EE275E083E595E0B3DD08EF82
:10FA200010E0CFEFDFEF40E052E06DE073E085E102
:10FA300095E0CFDD8111D3CF3DE0E32E33E0F32E0F
:10FA4000F70161917F01CE01A2DFEC01FDE0EF162D
:10FA5000F5E0FF06A9F70150110929F7009709F011
:10FA6000BECFE5E0F5E0ADE0B5E088E001900D92B5
:10FA70008A95E1F780910D0590910E05A0910F05F3
:10FA8000B091100580379345A444BB4209F0A7CF3D
:10FA900020911105309112052115310581F48EEF69
:10FAA0009FEEA1E0B0E0ABBFFC0187919691409141
:10FAB0001305509114054817590709F06BC08CEFD6
:10FAC0009FEEA1E0B0E0ABBFFC01879196918F3F24
:10FAD0004FEF940709F45EC08217930708F07FCFB9
:10FAE00059C0F2E0DF0EE11CF11CC15068F0C0FF0C
:10FAF0005DC0599A40E052E06DE073E085E195E029
:10FB000068DD882309F454C081E180935700E895AB
:10FB10005998E12CF12C8FEF9FEFF701649137DFBB
:10FB2000FFEFEF1AFF0AC9F7C12CD12C7601E3943D
:10FB3000EBBEF60167912BDF2FEFC21AD20AE20A61
:10FB4000F20AC11430EFD30631E0E306F10481F785
:10FB5000009741F41AB81BB81CBC1DBC15B814B8EA
:10FB6000FC0109958AE05898FFEF21EE34E0F1504E
:10FB700020403040E1F700C00000589A4FEF91EE6E
:10FB8000E4E041509040E040E1F700C000008150C7
:10FB900051F717CF45E155E06EE275E083E595E05A
:10FBA000F1DCC7EFC12CD12C7601A1CF5998A2CF9F
:10FBB0008DE093E0B701A601D2E023E0FA01609363
:10FBC0005B0020935700E89507B600FCFDCF9C0131
:10FBD00033954A015B01FC018217930791F002966D
:10FBE000A081B18111E00D01F401A0925B0010939E
:10FBF0005700E8951124E2E08E0E911CA11CB11C67
:10FC0000EACF85E0FA0160935B0080935700E895A6
:10FC100007B600FCFDCF5F5F6F4F7F4FC901D1304A
:10FC200009F45FCFD1E0C9CF8EBD0DB407FEFDCF83
:10FC30008EB508950F931F93CF93DF938C01EC0142
:10FC400024968A91F1DF8883C017D107D1F7DF911D
:10FC5000CF911F910F910895A5E0B0E0E1E3FEEF91
:10FC60002DC149835A836B837C832C982D83DCDFE1
:10FC7000CE010196DFDF2D81822FD6DF0FEF1FEF40
:10FC80008FEFD2DF87FF03C001501109C9F7259616
:10FC9000E4E030C12C9A8FEFC7DF8FEFC5DF8FEF25
:10FCA000C3CF0895A5E0B0E0E7E5FEEF05C18FED15
:10FCB00085B980EB84B981E08DBD1DBC80E58CBD2C
:10FCC0008DB58EB523E0E22EF12C10926C052C9AA6
:10FCD0001AE08FEFA9DF1150E1F725E940E050E08D
:10FCE000BA0180E4B9DF8D83D5DF8D8187FF02C043
:10FCF00011E072C0813029F081E0E81AF10829F79B
:10FD0000F7CF27E84AEA51E060E070E088E4A4DF3A
:10FD1000813039F419821A821B821C82CE0101962D
:10FD200089DFB8DFEE24EA94FE2C2FEF40E050E0AC
:10FD3000BA0187E791DF082FADDF013051F52FEFD2
:10FD400040E050E060E070E489E686DF8D83A2DF6A
:10FD50008D81813029F481E0E81AF10831F719C06A
:10FD6000811117C02FEF40E050E0BA018AE774DF3D
:10FD7000823070F419821A821B821C82CE01019695
:10FD800059DF89819A81AB81BC81B6FD00936C05F6
:10FD900081DFEE24EA94FE2C2FEF40E050E060E09B
:10FDA00070E481E459DF8D8375DF8D81882329F02C
:10FDB00081E0E81AF10881F79BCF2FEF40E052E095
:10FDC00060E070E080E548DF8D8364DF8D81811124
:10FDD0008FCF1DBC82E58CBD812F2596E6E088C0C3
:10FDE000CF93DF93EC0180916C05811107C089E00E
:10FDF000440F551F661F771F8A95D1F72FEF81E5B6
:10FE00002BDF882319F046DF81E01BC08FEF0CDF6A
:10FE10008E3FE1F78FEF8EBDFE01CE019E5F0DB4E8
:10FE200007FEFDCF2EB53FEF3EBD2193E817F90742
:10FE3000B1F70DB407FEFDCF8EB58FEFF5DE2ADFEB
:10FE400080E0DF91CF91089562D0A59F900DB49F7F
:10FE5000900DA49F800D911D11240895A1E21A2EEA
:10FE6000AA1BBB1BFD010DC0AA1FBB1FEE1FFF1F5E
:10FE7000A217B307E407F50720F0A21BB30BE40BAE
:10FE8000F50B661F771F881F991F1A9469F76095F5
:10FE90007095809590959B01AC01BD01CF010895AF
:10FEA0002F923F924F925F926F927F928F929F928A
:10FEB000AF92BF92CF92DF92EF92FF920F931F9378
:10FEC000CF93DF93CDB7DEB7CA1BDB0B0FB6F89429
:10FED000DEBF0FBECDBF09942A88398848885F8469
:10FEE0006E847D848C849B84AA84B984C884DF80DA
:10FEF000EE80FD800C811B81AA81B981CE0FD11DBE
:10FF00000FB6F894DEBF0FBECDBFED010895A29FDE
:10FF1000B001B39FC001A39F700D811D1124911DDD
:10FF2000B29F700D811D1124911D0895FB01DC010C
:10FF300004C08D910190801921F441505040C8F7C0
:10FF4000881B990B0895FB01DC0102C001900D9202
:0CFF500041505040D8F70895F894FFCFBE
:06FF5C004641543332005F
:040000031000F000F9
:00000001FF
